{
    "contractName": "WavePortal",
    "abi": [
        {
            "anonymous": false,
            "inputs": [
                {
                    "indexed": true,
                    "internalType": "address",
                    "name": "from",
                    "type": "address"
                },
                {
                    "indexed": false,
                    "internalType": "uint256",
                    "name": "timestamp",
                    "type": "uint256"
                },
                {
                    "indexed": false,
                    "internalType": "string",
                    "name": "message",
                    "type": "string"
                }
            ],
            "name": "NewWave",
            "type": "event"
        },
        {
            "inputs": [],
            "name": "allWaves",
            "outputs": [
                {
                    "components": [
                        {
                            "internalType": "address",
                            "name": "waver",
                            "type": "address"
                        },
                        {
                            "internalType": "string",
                            "name": "message",
                            "type": "string"
                        },
                        {
                            "internalType": "uint256",
                            "name": "timestamp",
                            "type": "uint256"
                        }
                    ],
                    "internalType": "struct WavePortal.Wave[]",
                    "name": "",
                    "type": "tuple[]"
                }
            ],
            "stateMutability": "view",
            "type": "function"
        },
        {
            "inputs": [],
            "name": "getTotalWaves",
            "outputs": [
                {
                    "internalType": "uint256",
                    "name": "",
                    "type": "uint256"
                }
            ],
            "stateMutability": "view",
            "type": "function"
        },
        {
            "inputs": [
                {
                    "internalType": "string",
                    "name": "_message",
                    "type": "string"
                }
            ],
            "name": "wave",
            "outputs": [],
            "stateMutability": "nonpayable",
            "type": "function"
        }
    ],
    "bytecode": "608060405234801561001057600080fd5b50610725806100206000396000f3fe608060405234801561001057600080fd5b50600436106100415760003560e01c8063449d46c014610046578063491a96521461005b5780639a2cdc0814610079575b600080fd5b6100596100543660046103dc565b61008a565b005b6100636102b5565b60405161007091906104d3565b60405180910390f35b600054604051908152602001610070565b600160008082825461009c919061055f565b90915550506040805160608101825233815260208101838152429282019290925260018054808201825560009190915281517fb10e2d527612073b26eecdfd717e6a320cf44b4afac2b0732d9fcbe2b7fa0cf6600390920291820180546001600160a01b0319166001600160a01b0390921691909117815592519192917fb10e2d527612073b26eecdfd717e6a320cf44b4afac2b0732d9fcbe2b7fa0cf790910190610148908261060e565b506040918201516002909101555133907f5f7e16dc676677766a70e9c5628aa6c54ddb8b6e5188e2ae1e1f17f1ffbea7169061018790429085906106ce565b60405180910390a2655af3107a4000478111156102085760405162461bcd60e51b815260206004820152603460248201527f547279696e6720746f207769746864726177206d6f7265206d6f6e657920746860448201527330b7103a34329031b7b73a3930b1ba103430b99760611b60648201526084015b60405180910390fd5b604051600090339083908381818185875af1925050503d806000811461024a576040519150601f19603f3d011682016040523d82523d6000602084013e61024f565b606091505b50509050806102b05760405162461bcd60e51b815260206004820152602760248201527f4661696c656420746f207769746864726177206d6f6e65792066726f6d20636f604482015266373a3930b1ba1760c91b60648201526084016101ff565b505050565b60606001805480602002602001604051908101604052809291908181526020016000905b828210156103bd57600084815260209081902060408051606081019091526003850290910180546001600160a01b03168252600181018054929391929184019161032290610586565b80601f016020809104026020016040519081016040528092919081815260200182805461034e90610586565b801561039b5780601f106103705761010080835404028352916020019161039b565b820191906000526020600020905b81548152906001019060200180831161037e57829003601f168201915b50505050508152602001600282015481525050815260200190600101906102d9565b50505050905090565b634e487b7160e01b600052604160045260246000fd5b6000602082840312156103ee57600080fd5b813567ffffffffffffffff8082111561040657600080fd5b818401915084601f83011261041a57600080fd5b81358181111561042c5761042c6103c6565b604051601f8201601f19908116603f01168101908382118183101715610454576104546103c6565b8160405282815287602084870101111561046d57600080fd5b826020860160208301376000928101602001929092525095945050505050565b6000815180845260005b818110156104b357602081850181015186830182015201610497565b506000602082860101526020601f19601f83011685010191505092915050565b60006020808301818452808551808352604092508286019150828160051b87010184880160005b8381101561055157888303603f19018552815180516001600160a01b03168452878101516060898601819052906105338287018261048d565b928901519589019590955250948701949250908601906001016104fa565b509098975050505050505050565b8082018082111561058057634e487b7160e01b600052601160045260246000fd5b92915050565b600181811c9082168061059a57607f821691505b6020821081036105ba57634e487b7160e01b600052602260045260246000fd5b50919050565b601f8211156102b057600081815260208120601f850160051c810160208610156105e75750805b601f850160051c820191505b81811015610606578281556001016105f3565b505050505050565b815167ffffffffffffffff811115610628576106286103c6565b61063c816106368454610586565b846105c0565b602080601f83116001811461067157600084156106595750858301515b600019600386901b1c1916600185901b178555610606565b600085815260208120601f198616915b828110156106a057888601518255948401946001909101908401610681565b50858210156106be5787850151600019600388901b60f8161c191681555b5050505050600190811b01905550565b8281526040602082015260006106e7604083018461048d565b94935050505056fea26469706673582212200a0ea398608d74217a25d5abd20ed4c41d7f99de71d3ab0b6a2b6565654562ae64736f6c63430008100033",
    "sourcePath": "d:/web3/buildspace/wave-portal/contracts/WavePortal.sol",
    "compiler": {
        "name": "solc",
        "version": "0.8.16+commit.07a7930e"
    },
    "functionHashes": {
        "allWaves()": "491a9652",
        "getTotalWaves()": "9a2cdc08",
        "wave(string)": "449d46c0"
    },
    "gasEstimates": {
        "creation": {
            "codeDepositCost": "365800",
            "executionCost": "405",
            "totalCost": "366205"
        },
        "external": {
            "allWaves()": "infinite",
            "getTotalWaves()": "2302",
            "wave(string)": "infinite"
        }
    }
}