{
  "_format": "hh-sol-artifact-1",
  "contractName": "WavePortal",
  "sourceName": "contracts/WavePortal.sol",
  "abi": [
    {
      "inputs": [],
      "stateMutability": "payable",
      "type": "constructor"
    },
    {
      "anonymous": false,
      "inputs": [
        {
          "indexed": true,
          "internalType": "address",
          "name": "from",
          "type": "address"
        },
        {
          "indexed": false,
          "internalType": "uint256",
          "name": "timestamp",
          "type": "uint256"
        },
        {
          "indexed": false,
          "internalType": "string",
          "name": "message",
          "type": "string"
        }
      ],
      "name": "NewWave",
      "type": "event"
    },
    {
      "inputs": [],
      "name": "allWaves",
      "outputs": [
        {
          "components": [
            {
              "internalType": "address",
              "name": "waver",
              "type": "address"
            },
            {
              "internalType": "string",
              "name": "message",
              "type": "string"
            },
            {
              "internalType": "uint256",
              "name": "timestamp",
              "type": "uint256"
            }
          ],
          "internalType": "struct WavePortal.Wave[]",
          "name": "",
          "type": "tuple[]"
        }
      ],
      "stateMutability": "view",
      "type": "function"
    },
    {
      "inputs": [],
      "name": "getTotalWaves",
      "outputs": [
        {
          "internalType": "uint256",
          "name": "",
          "type": "uint256"
        }
      ],
      "stateMutability": "view",
      "type": "function"
    },
    {
      "inputs": [
        {
          "internalType": "address",
          "name": "",
          "type": "address"
        }
      ],
      "name": "lastWavedAt",
      "outputs": [
        {
          "internalType": "uint256",
          "name": "",
          "type": "uint256"
        }
      ],
      "stateMutability": "view",
      "type": "function"
    },
    {
      "inputs": [
        {
          "internalType": "string",
          "name": "_message",
          "type": "string"
        }
      ],
      "name": "wave",
      "outputs": [],
      "stateMutability": "payable",
      "type": "function"
    }
  ],
  "bytecode": "0x60806040526064444262000014919062000065565b620000209190620000f1565b60018190555062000129565b6000819050919050565b7f4e487b7100000000000000000000000000000000000000000000000000000000600052601160045260246000fd5b600062000072826200002c565b91506200007f836200002c565b9250827fffffffffffffffffffffffffffffffffffffffffffffffffffffffffffffffff03821115620000b757620000b662000036565b5b828201905092915050565b7f4e487b7100000000000000000000000000000000000000000000000000000000600052601260045260246000fd5b6000620000fe826200002c565b91506200010b836200002c565b9250826200011e576200011d620000c2565b5b828206905092915050565b61101f80620001396000396000f3fe60806040526004361061003f5760003560e01c8063449d46c014610044578063491a9652146100605780639a2cdc081461008b578063a42a4663146100b6575b600080fd5b61005e600480360381019061005991906106f4565b6100f3565b005b34801561006c57600080fd5b50610075610428565b6040516100829190610931565b60405180910390f35b34801561009757600080fd5b506100a0610579565b6040516100ad9190610962565b60405180910390f35b3480156100c257600080fd5b506100dd60048036038101906100d891906109a9565b610582565b6040516100ea9190610962565b60405180910390f35b426078600360003373ffffffffffffffffffffffffffffffffffffffff1673ffffffffffffffffffffffffffffffffffffffff168152602001908152602001600020546101409190610a05565b10610180576040517f08c379a000000000000000000000000000000000000000000000000000000000815260040161017790610ade565b60405180910390fd5b42600360003373ffffffffffffffffffffffffffffffffffffffff1673ffffffffffffffffffffffffffffffffffffffff1681526020019081526020016000208190555060016000808282546101d69190610a05565b92505081905550600260405180606001604052803373ffffffffffffffffffffffffffffffffffffffff16815260200183815260200142815250908060018154018082558091505060019003906000526020600020906003020160009091909190915060008201518160000160006101000a81548173ffffffffffffffffffffffffffffffffffffffff021916908373ffffffffffffffffffffffffffffffffffffffff16021790555060208201518160010190816102959190610d0a565b50604082015181600201555050606460015442446102b39190610a05565b6102bd9190610a05565b6102c79190610e0b565b600181905550603260015410156103d5576000655af3107a4000905047811115610326576040517f08c379a000000000000000000000000000000000000000000000000000000000815260040161031d90610e88565b60405180910390fd5b60003373ffffffffffffffffffffffffffffffffffffffff168260405161034c90610ed9565b60006040518083038185875af1925050503d8060008114610389576040519150601f19603f3d011682016040523d82523d6000602084013e61038e565b606091505b50509050806103d2576040517f08c379a00000000000000000000000000000000000000000000000000000000081526004016103c990610f60565b60405180910390fd5b50505b3373ffffffffffffffffffffffffffffffffffffffff167f5f7e16dc676677766a70e9c5628aa6c54ddb8b6e5188e2ae1e1f17f1ffbea716428360405161041d929190610fb9565b60405180910390a250565b60606002805480602002602001604051908101604052809291908181526020016000905b8282101561057057838290600052602060002090600302016040518060600160405290816000820160009054906101000a900473ffffffffffffffffffffffffffffffffffffffff1673ffffffffffffffffffffffffffffffffffffffff1673ffffffffffffffffffffffffffffffffffffffff1681526020016001820180546104d590610b2d565b80601f016020809104026020016040519081016040528092919081815260200182805461050190610b2d565b801561054e5780601f106105235761010080835404028352916020019161054e565b820191906000526020600020905b81548152906001019060200180831161053157829003601f168201915b505050505081526020016002820154815250508152602001906001019061044c565b50505050905090565b60008054905090565b60036020528060005260406000206000915090505481565b6000604051905090565b600080fd5b600080fd5b600080fd5b600080fd5b6000601f19601f8301169050919050565b7f4e487b7100000000000000000000000000000000000000000000000000000000600052604160045260246000fd5b610601826105b8565b810181811067ffffffffffffffff821117156106205761061f6105c9565b5b80604052505050565b600061063361059a565b905061063f82826105f8565b919050565b600067ffffffffffffffff82111561065f5761065e6105c9565b5b610668826105b8565b9050602081019050919050565b82818337600083830152505050565b600061069761069284610644565b610629565b9050828152602081018484840111156106b3576106b26105b3565b5b6106be848285610675565b509392505050565b600082601f8301126106db576106da6105ae565b5b81356106eb848260208601610684565b91505092915050565b60006020828403121561070a576107096105a4565b5b600082013567ffffffffffffffff811115610728576107276105a9565b5b610734848285016106c6565b91505092915050565b600081519050919050565b600082825260208201905092915050565b6000819050602082019050919050565b600073ffffffffffffffffffffffffffffffffffffffff82169050919050565b600061079482610769565b9050919050565b6107a481610789565b82525050565b600081519050919050565b600082825260208201905092915050565b60005b838110156107e45780820151818401526020810190506107c9565b838111156107f3576000848401525b50505050565b6000610804826107aa565b61080e81856107b5565b935061081e8185602086016107c6565b610827816105b8565b840191505092915050565b6000819050919050565b61084581610832565b82525050565b6000606083016000830151610863600086018261079b565b506020830151848203602086015261087b82826107f9565b9150506040830151610890604086018261083c565b508091505092915050565b60006108a7838361084b565b905092915050565b6000602082019050919050565b60006108c78261073d565b6108d18185610748565b9350836020820285016108e385610759565b8060005b8581101561091f5784840389528151610900858261089b565b945061090b836108af565b925060208a019950506001810190506108e7565b50829750879550505050505092915050565b6000602082019050818103600083015261094b81846108bc565b905092915050565b61095c81610832565b82525050565b60006020820190506109776000830184610953565b92915050565b61098681610789565b811461099157600080fd5b50565b6000813590506109a38161097d565b92915050565b6000602082840312156109bf576109be6105a4565b5b60006109cd84828501610994565b91505092915050565b7f4e487b7100000000000000000000000000000000000000000000000000000000600052601160045260246000fd5b6000610a1082610832565b9150610a1b83610832565b9250827fffffffffffffffffffffffffffffffffffffffffffffffffffffffffffffffff03821115610a5057610a4f6109d6565b5b828201905092915050565b600082825260208201905092915050565b7f5761697420666f722032206d696e7574657320746f207761766520616761696e60008201527f2100000000000000000000000000000000000000000000000000000000000000602082015250565b6000610ac8602183610a5b565b9150610ad382610a6c565b604082019050919050565b60006020820190508181036000830152610af781610abb565b9050919050565b7f4e487b7100000000000000000000000000000000000000000000000000000000600052602260045260246000fd5b60006002820490506001821680610b4557607f821691505b602082108103610b5857610b57610afe565b5b50919050565b60008190508160005260206000209050919050565b60006020601f8301049050919050565b600082821b905092915050565b600060088302610bc07fffffffffffffffffffffffffffffffffffffffffffffffffffffffffffffffff82610b83565b610bca8683610b83565b95508019841693508086168417925050509392505050565b6000819050919050565b6000610c07610c02610bfd84610832565b610be2565b610832565b9050919050565b6000819050919050565b610c2183610bec565b610c35610c2d82610c0e565b848454610b90565b825550505050565b600090565b610c4a610c3d565b610c55818484610c18565b505050565b5b81811015610c7957610c6e600082610c42565b600181019050610c5b565b5050565b601f821115610cbe57610c8f81610b5e565b610c9884610b73565b81016020851015610ca7578190505b610cbb610cb385610b73565b830182610c5a565b50505b505050565b600082821c905092915050565b6000610ce160001984600802610cc3565b1980831691505092915050565b6000610cfa8383610cd0565b9150826002028217905092915050565b610d13826107aa565b67ffffffffffffffff811115610d2c57610d2b6105c9565b5b610d368254610b2d565b610d41828285610c7d565b600060209050601f831160018114610d745760008415610d62578287015190505b610d6c8582610cee565b865550610dd4565b601f198416610d8286610b5e565b60005b82811015610daa57848901518255600182019150602085019450602081019050610d85565b86831015610dc75784890151610dc3601f891682610cd0565b8355505b6001600288020188555050505b505050505050565b7f4e487b7100000000000000000000000000000000000000000000000000000000600052601260045260246000fd5b6000610e1682610832565b9150610e2183610832565b925082610e3157610e30610ddc565b5b828206905092915050565b7f536f7272792c2062616c616e6365206973206c6f772100000000000000000000600082015250565b6000610e72601683610a5b565b9150610e7d82610e3c565b602082019050919050565b60006020820190508181036000830152610ea181610e65565b9050919050565b600081905092915050565b50565b6000610ec3600083610ea8565b9150610ece82610eb3565b600082019050919050565b6000610ee482610eb6565b9150819050919050565b7f4661696c656420746f207769746864726177206d6f6e65792066726f6d20636f60008201527f6e74726163742e00000000000000000000000000000000000000000000000000602082015250565b6000610f4a602783610a5b565b9150610f5582610eee565b604082019050919050565b60006020820190508181036000830152610f7981610f3d565b9050919050565b6000610f8b826107aa565b610f958185610a5b565b9350610fa58185602086016107c6565b610fae816105b8565b840191505092915050565b6000604082019050610fce6000830185610953565b8181036020830152610fe08184610f80565b9050939250505056fea2646970667358221220912fcc5a0c79bf90092ed8b222aa0efa09407e443dffeb95060b709d4ed9dbad64736f6c634300080f0033",
  "linkReferences": {},
  "deployedLinkReferences": {}
}